:100000000C94C70318951895189518951895189578
:100010001895189518951895189518951895189578
:100020001895189518951895189518951895189568
:1000300018951895189518950C940C021895189504
:100040001895189518951895189518951895189548
:100050001895189518951895189518951895189538
:100060001895189518951895189518951895189528
:100070001895189518951895189518951895189518
:100080001895189518951895189518951895189508
:1000900018951895189518951895189518951895F8
:1000A00018951895189518951895189518951895E8
:1000B00018951895189518951895189518951895D8
:1000C00018951895189518951895189500E01091A1
:1000D000160220911502211739F01395143108F0FA
:1000E00010E01093160203EA08954A92BA93AA9375
:1000F0009A938A9303EA402E00911702002381F518
:100100004098389A04E110E00E94FB01399A419826
:1001100004E110E00E94FB013998419A04E110E0EB
:100120000E94FB013898409A80E090E0A0E0B0E0A7
:10013000309906C04092170288E99EE2A2E0B0E042
:1001400008E010E00E94FB018F5F9F4FAF4FBF4F51
:100150008C3D07E3900700E0A007B00768F6E8CF02
:1001600000E00093170280E090E0A0E0B0E0309B58
:1001700006C04092170288E99EE2A2E0B0E008E0E3
:1001800010E00E94FB018F5F9F4FAF4FBF4F8C3D30
:1001900007E3900700E0A007B00748F300911902B9
:1001A000002311F0179801C0179A89919991A9918C
:1001B000B99149900895AA929A928A926A925A9213
:1001C000BA93AA939A938A93902EA12E882480E0C2
:1001D00090E0A0E0B0E007E3502E662408E010E0D5
:1001E0000E94FB01309B0AC088E99EE2A2E0B0E0D9
:1001F00000E510E00E94FB0103EA802E8F5F9F4F15
:10020000AF4FBF4F8C3D9505A605B60538F3882046
:1002100009F450C0F894AA2041F44098389A01E1BA
:1002200010E00E94FB013898409A07E610E00E9417
:10023000FB0190E088E000E810E0492F0E94E00315
:10024000192D102319F43898409A02C04098389A12
:1002500001E110E00E94FB01399A419801E110E0B0
:100260000E94FB013998419A01E110E00E94FB01D4
:1002700093958A9501F73898409A000000008824E9
:1002800080E090E0A0E0B0E008E010E00E94FB0118
:10029000309906C088E99EE2A2E0B0E003EA802E31
:1002A0008F5F9F4FAF4FBF4F8C3D9505A605B6059D
:1002B00058F37894082D89919991A991B991599001
:1002C000699089909990A990089520E0023671F480
:1002D000133AE1F410911902133A11F410E001C03D
:1002E00013EA10931902112379F01798509115020F
:1002F000452F4395443108F040E0309116024317F2
:1003000091F0133A29F405C0179AF0CF03EA089543
:1003100021E0000F022BF0E0E52FEF5FFD4F00839F
:100320004093150223EA022F08957198699A399A29
:10033000419A3898409A249A2C980F9A179846E137
:1003400050E020E030E001E012E00E94E50300E030
:1003500000931702009318020093190203EA009316
:100360001A0210E00DEFB1DF10E00EEFAEDF04EF88
:1003700011E00E94FB012C9A08958A9300911702C4
:10038000033A61F006B1B1DE00911802002331F0AA
:1003900010911A0203EF0FDF00931702009116026B
:1003A000109115021017C1F0F0E0E02FEF5FFD4F44
:1003B000808110911A02082FFEDE002339F086DEBC
:1003C0008E3F51F400E000931A0206C000E0009353
:1003D000170203EA009318028991089500E0009340
:1003E0001502009316022C9804EF11E00E940302FC
:1003F000F8940000FECF202F212B21F000000150A7
:100400001040E1F70895F8010F2B29F008EE13E0F2
:10041000F2DF3197D9F708958A93FA93EA933A92E3
:100420002A921A920A927A936A935A934A933A9327
:100430002A931A930A938FB70E942503A8958FBF1A
:10044000099119912991399149915991699179911C
:100450000990199029903990E991F991899118950D
:100460000E94BA030E9474020E94950100916400E8
:10047000077F0093640009E00093810000E81EE319
:10048000109389000093880004E000936F00789433
:100490000E94CA020E94BD01FBCF5B2F6A2F202F52
:1004A00010E0ECE5F1E00FE02117338159F43095CD
:1004B000A081B0E04C9143234C933381A2814C91B5
:1004C000432B0AC0A081B0E04C91432B4C93338165
:1004D0003095A2814C9143234C93139534960A9501
:1004E00019F7A62FB52F0895BA93AA93E0E4F1E087
:1004F00007E0B0E013811095A2812C9121232C9369
:100500001381A0812C91212B2C9334960A9591F77D
:10051000ECE5F1E00FE01381A0812C91212B2C93CD
:1005200013811095A2812C9121232C9334960A9546
:1005300091F76D98759A6E98769A2098289A2198D6
:10054000299A22982A9A23982B9A6C98749A4EE1A9
:1005500050E02FEF30E00BE412E00E94E5034FE0A3
:1005600050E02FEF30E00BE112E00E94E5034FE096
:1005700050E020E030E00BE212E00E94E5034FE0A3
:1005800050E020E030E00AE312E00E94E503A99188
:10059000B99108955A924A92BA93AA938A9344249D
:1005A00080E05524ABE1B2E0A40DB51D01E010E000
:1005B000482F0E94DB03202FFD0130892323C9F03F
:1005C00013EA0FE0809FE8E9F1E0E00DF11DE40D92
:1005D000F51D00810E946501033A51F501E010E02C
:1005E000482F0E94DB030095FD0110891023108B1A
:1005F0001BC0178D0123C1F010E00FE0809FE8E9D8
:10060000F1E0E00DF11DE40DF11F00810E94650194
:10061000002371F001E010E0482F0E94DB030095F9
:10062000FD01178D1023178F8395873018F4B9CFEC
:100630000FE0402E43940FE0401608F4B1CF8991AB
:10064000A991B991499059900895BA93AA935FEFEF
:1006500020E0E1E4F1E037E06091490202C0263099
:1006600068F4A081B0E00C911281012359F101E0FE
:1006700010E0422F0E94DB03502B2BC0062F662375
:1006800069F00A9571F00A9579F00A9581F00A955A
:1006900089F00A9591F00A9599F01BC0659919C0E7
:1006A00011C0669916C00EC0189913C00BC01999D5
:1006B00010C008C01A990DC005C01B990AC002C01D
:1006C000649907C001E010E0422F0E94DB0300950F
:1006D0005023239534963A9511F650932A0211240B
:1006E000062F000FBB1FEBE4F2E0E00FFB1F209191
:1006F0004A02DF01A20FB11D5C9350E002E01191AC
:10070000512B0A95E1F7EBE1F2E0E60FF11D0081D4
:10071000102F1527352F3095412F43233089342B47
:10072000308B1523378D312B378F1089109501238E
:10073000032B008363956F3029F460E0239522300A
:1007400009F420E020934A026093490200912102BB
:1007500006FD0AC000911D0206FD06C000911E02A2
:1007600006FD02C00E94EE010091490296DEA991A9
:10077000B9910895A8950091600008610093600008
:100780000EE000936000089500008895FECF0FE30F
:100790000DBF01E00EBFC0E2D1E00E94E3030023E1
:1007A00011F00E94FA030E9430020E94C4030C94CC
:1007B000C403000F111F4A95E2F708951695079597
:1007C0004A95E2F7089501E00895F80101C02193E8
:1007D000BA0141505040672BD1F7089520E02D9386
:1007E00001501040E1F7089525912D9301501040DC
:1007F000D9F7089588E298E0FC0105911491FC0175
:100800003296A591B491FC01349625913491422FF2
:10081000432B19F0F901E8DF01C0E0DF069618E08C
:100820008433910748F30895680001020000C10075
:1008300040013408282627042826270828262710C0
:1008400028262720282627402826278025232440BD
:100850002220214022202120222021102220210894
:100860002220210422202102222021012B292A01D9
:100870002B292A022B292A042B292A082B292A1062
:100880002B292A202E2C2D042E2C2D085F59585749
:10089000565C555B54535251505A454C0D0C0B0A43
:1008A000090807060504030201004F441B1A191822
:1008B0001716151413121110424E462B2A292827F9
:1008C00026252423222120624D4140613A393837C0
:1008D000363534333231304A0F1D2D3D431E2E3E06
:1008E0003C1F2F3F5E5D61656763606466FFFFFFCD
:0508F000FFFFFFFFFF08
:00078E016A
:00000001FF
