:100000000C94BE051895189518951895189518957F
:100010001895189518951895189518951895189578
:100020001895189518951895189518951895189568
:1000300018951895189518950C94560218951895BA
:100040001895189518951895189518951895189548
:100050001895189518951895189518951895189538
:100060001895189518951895189518951895189528
:100070001895189518951895189518951895189518
:100080001895189518951895189518951895189508
:1000900018951895189518951895189518951895F8
:1000A00018951895189518951895189518951895E8
:1000B00018951895189518951895189518951895D8
:1000C0001895189518951895189518953898409A78
:1000D00008954098389A08953998419A0895399A20
:1000E000419808952C9A08952C980895AD01D8014F
:1000F00000E02091050330910603231781F0209141
:1001000006032395122F143108F010E02091060306
:1001100030E0F901EF50FD4F20812C9303EADA0122
:10012000089500E02091050330910603231751F054
:10013000209106032395122F143108F010E010933C
:10014000060303EA089500E00093050300E000932E
:10015000060308950E94250600910703002371F508
:10016000B8DF04E110E00E943F02B9DF04E110E0D3
:100170000E943F02B1DF04E110E00E943F02A6DFCF
:1001800080E090E0A0E0B0E08C3D07E3900700E065
:10019000A00700E0B00700F7309907C003EA00931A
:1001A000070388E99EE2A2E0B0E008E010E00E94C8
:1001B0003F028F5F9F4FAF4FBF4FE6CF00E00093EE
:1001C000070380E090E0A0E0B0E08C3D07E39007FB
:1001D00000E0A00700E0B00790F4309B07C003EAFE
:1001E0000093070388E99EE2A2E0B0E008E010E097
:1001F0000E943F028F5F9F4FAF4FBF4FE6CF0091EE
:100200000903002311F0179801C0179AE4E00C9439
:100210002E060E942106602E712E442480E090E07C
:10022000A0E0B0E08C3D07E3900700E0A00700E00D
:10023000B007A8F408E010E00E943F02309B0AC01B
:1002400088E99EE2A2E0B0E000E510E00E943F02F3
:1002500003EA402E8F5F9F4FAF4FBF4FE3CF442045
:1002600009F45CC0F894772031F433DF01E110E049
:100270000E943F022BDF07E610E00E943F02552458
:1002800008E05016E0F400E810E0452D0E94DF057C
:10029000162D1023112311F419DF01C01ADF01E11B
:1002A00010E00E943F021BDF01E110E00E943F02CC
:1002B00013DF01E110E00E943F025394E1CF06DF1B
:1002C00000000000442480E090E0A0E0B0E08C3D1D
:1002D00007E3900700E0A00700E0B00788F408E01B
:1002E00010E00E943F02309906C088E99EE2A2E039
:1002F000B0E003EA402E8F5F9F4FAF4FBF4FE7CF75
:10030000442051F4719A00E811E00E94A80504E627
:1003100010E00E943F02719878940AC0719A06E832
:1003200011E00E94A80504E610E00E943F027198C7
:10033000042DE8E00C942A06502F40E05236D1F408
:10034000133AB1F400910903033A21F400E0009359
:10035000090303C003EA0093090300910903102F66
:1003600000910903002311F0179804C0179A02C0E6
:1003700003EA0895009105030395602F643108F0A6
:1003800060E0009106036017A1F0133A19F420E031
:1003900030E002C021E030E002E0509F022A2091CC
:1003A000050330E0F901EF50FD4F00826093050333
:1003B00043EA042F08957198699A399A419A3898B6
:1003C000409A249A2C980F9A179846E150E020E022
:1003D00030E001EF12E00E94390600E000930703CD
:1003E00000E00093080300E00093090303EA009390
:1003F0000A0310E00DEFA0DF10E00EEF9DDF04EF29
:1004000011E00E943F026EDE08958A9321970091C9
:100410000703033A61F086B19DDE009108030023D3
:1004200031F010910A0303EFF4DE009307038E010D
:100430005DDE0023A1F010910A030881EADE0023AB
:1004400041F06FDE08810E3F51F400E000930A0393
:1004500006C000E00093070303EA00930803219617
:100460008991089570DE0CE811E00E94A8053CDE39
:1004700004EF11E00E944802F8940000FECFE0E093
:10048000F0E0E017F10718F400003196FACF089574
:10049000AC01980180E090E08217930728F408EE01
:1004A00013E0EDDF0196F8CFCA0108958A93FA931D
:1004B000EA933A922A921A920A927A936A935A93F8
:1004C0004A933A932A931A930A938FB70E9451043E
:1004D000A8958FBF09911991299139914991599105
:1004E000699179910990199029903990E991F99140
:1004F0008991189500E01BE420E030E00E94760529
:100500000E94B10504B7102F10FF04C003E911E0E9
:100510000E94A80504B7102F11FF04C00FEA11E0D4
:100520000E94A80504B7102F12FF04C00CEC11E0C4
:100530000E94A80504B7102F13FF04C009EE11E0B4
:100540000E94A80504B7102F14FF04C00CE012E0AD
:100550000E94A8050E943A030E94DB0100916400FA
:10056000077F0093640009E00093810000E81EE328
:10057000109389000093880004E000936F00789442
:1005800004E212E00E94A8050E94DB030E9405021B
:10059000FBCF202F00E00F3008F06BC02017A1F533
:1005A000402F50E0440F551F440F551FFA01E45BE4
:1005B000FD4F33813095402F50E0440F551F440FBD
:1005C000551FFA01E45BFD4F1081E12FF0E010812F
:1005D00013231083402F50E0440F551F440F551F25
:1005E000FA01E45BFD4F3381402F50E0440F551F6B
:1005F000440F551FFA01E45BFD4F1281E12FF0E03B
:100600001081132B108333C0402F50E0440F551F2F
:10061000440F551FFA01E45BFD4F3381402F50E03A
:10062000440F551F440F551FFA01E45BFD4F108125
:10063000E12FF0E01081132B1083402F50E0440F86
:10064000551F440F551FFA01E45BFD4F3381309570
:10065000402F50E0440F551F440F551FFA01E45B33
:10066000FD4F1281E12FF0E01081132310830395D9
:1006700092CF08958A9380E08730A8F5082F10E084
:10068000000F111F000F111FF801E05DFD4F2381C6
:100690002095082F10E0000F111F000F111FF80107
:1006A000E05DFD4F0281E02FF0E000810223008336
:1006B000082F10E0000F111F000F111FF801E05D5F
:1006C000FD4F2381082F10E0000F111F000F111F95
:1006D000F801E05DFD4F0081E02FF0E00081022B8A
:1006E00000838395C9CF80E08F30A8F5082F10E0F4
:1006F000000F111F000F111FF801E45BFD4F238154
:10070000082F10E0000F111F000F111FF801E45B0C
:10071000FD4F0081E02FF0E00081022B0083082FC5
:1007200010E0000F111F000F111FF801E45BFD4FD7
:1007300023812095082F10E0000F111F000F111FBB
:10074000F801E45BFD4F0281E02FF0E0008102231D
:1007500000838395C9CF6D98759A6E98769A209884
:10076000289A2198299A22982A9A23982B9A6C9849
:10077000749A4EE150E02FEF30E00CE013E00E945D
:1007800039064FE050E02FEF30E00AE213E00E941C
:1007900039064FE050E020E030E009E313E00E942A
:1007A00039064FE050E020E030E008E413E00E941A
:1007B0003906899108950E942506A0E0AF3008F01F
:1007C0006DC080E0873008F067C001E010E0482F7E
:1007D0000E94DA05B0E0FD01E75CFC4F10810123C7
:1007E000002331F1082F10E04FE050E00E94D005C7
:1007F000E8E8F2E0E00FF11FB0E0EA0FFB1F008134
:10080000902F13EA092F0E949C01033A71F401E032
:1008100010E0482F0E94DA050095B0E0FD01E75C8A
:10082000FC4F10811023108335C087E0AFE032C049
:1008300001E010E0482F0E94DA05B0E0FD01E85B1E
:10084000FC4F10810123002329F1082F10E04FE015
:1008500050E00E94D005E8E8F2E0E00FF11FB0E0C0
:10086000EA0FFB1F0081902F10E0092F0E949C01CE
:10087000002371F001E010E0482F0E94DA05009596
:10088000B0E0FD01E85BFC4F10811023108302C033
:1008900087E0AFE0839596CFA39590CFE4E00C94EA
:1008A0002E060E9425068FEFA0E0A73008F083C037
:1008B000A63048F50A2F10E0000F111F000F111F7E
:1008C000F801E05DFD4F0181E02FF0E020810A2F6B
:1008D00010E0000F111F000F111FF801E05DFD4F28
:1008E00003812023222341F401E010E04A2F0E94DB
:1008F000DA05009580235DC001E010E04A2F0E94D8
:10090000DA05802B56C000915703005069F00A9514
:10091000A9F00A95E9F00A9529F10A9569F10A9575
:10092000A9F10A95E9F145C0659943C001E010E0DD
:100930004A2F0E94DA05009580233BC0669939C092
:1009400001E010E04A2F0E94DA050095802331C0B3
:1009500018992FC001E010E04A2F0E94DA05009597
:10096000802327C0199925C001E010E04A2F0E947A
:10097000DA05009580231DC01A991BC001E010E024
:100980004A2F0E94DA050095802313C01B9911C0DD
:1009900001E010E04A2F0E94DA050095802309C08B
:1009A000649907C001E010E04A2F0E94DA05009523
:1009B0008023A3957ACF80930B030091570310E017
:1009C000000F111FECE0F3E0E00FF11F009158035E
:1009D00010E0E00FF11F808380E0A0E0A23080F4FF
:1009E0000091570310E0000F111FECE0F3E0E00F5F
:1009F000F11FB0E0EA0FFB1F0081802BA395EECF23
:100A00000091570310E0F801E65DFC4F2081282794
:100A1000082F009520230091570310E0F801E75CB0
:100A2000FC4F0081022B00830091570310E0F80176
:100A3000E65DFC4F2081282728230091570310E012
:100A4000F801E85BFC4F0081022B00830091570303
:100A500010E0F801E75CFC4F2081209500915703DE
:100A600010E0F801E65DFC4F008102230083009155
:100A7000570310E0F801E85BFC4F20810091570319
:100A800010E0F801E65DFC4F0081022B008300912D
:100A90005703039500935703009157030F3079F4E0
:100AA00000E0009357030091580303950093580307
:100AB00000915803023019F400E000935803EAE271
:100AC000F3E0068106FD0CC0EAE2F3E0028106FDD8
:100AD00007C0EAE2F3E0038106FD02C00E94320291
:100AE0000091570356DDE4E00C942E060E94250683
:100AF000C801D9018C019D0140E150E060E070E047
:100B00000E94E205A801B90100E012E12AE730E005
:100B10000E9402060150104020403040519AA80126
:100B2000452F50E04093C500A8014093C40048E021
:100B30004093C10046E04093C200E4E00C942E06CE
:100B40001091C000212F25FFFBCF0093C600089510
:100B5000F8010081002321F00081F2DF3196F9CF06
:100B60000895A895009160000861009360000EE070
:100B700000936000089500008895FECF0FE70DBF39
:100B800001E00EBFC0E4D1E00E943706002311F05F
:100B90000E944E060E947A020E94BB050C94BB057F
:100BA000149F102D059F100D049F002D110D089509
:100BB000000F111F4A95E2F70895169507954A957B
:100BC000E2F708952224349F302D259F300D169F83
:100BD000300D079F300D249F202D310D159F200DC6
:100BE000311D069F200D311D149F102D210D321D2A
:100BF000059F100D211D321D049F002D110D221D7A
:100C0000321D0895002411241001E0E2001F111F7D
:100C1000221F331FEA9572F0001C111C221C331C8A
:100C2000041615062606370688F3041A150A260A3E
:100C3000370AECCFA001B1010095109520953095B1
:100C400008957A926A925A924A92BA93AA939A9380
:100C50008A9308957F806E805D804C80BB81AA81DD
:100C600099818881F0E0EC0FFD1FEF01089501E00C
:100C70000895F80101C02193BA0141505040672BFB
:100C8000D1F7089520E02D9301501040E1F7089529
:100C900025912D9301501040D9F7089580ED9CE0E7
:100CA000FC0105911491FC013296A591B491FC01CF
:100CB000349625913491422F432B19F0F901E8DF46
:100CC00001C0E0DF06961CE08C3D910748F30895D3
:100CD00071018001DC0C6800F10200002A544F32DF
:100CE0000D002A544F310D0052455345540D00500C
:100CF0004F52463A20506F7765722D6F6E205265C5
:100D000073657420466C61670D0A0045585452465D
:100D10003A2045787465726E616C20526573657413
:100D200020466C61670D0A00424F52463A204272DB
:100D30006F776E2D6F757420526573657420466CE5
:100D400061670D0A00574452463A20576174636840
:100D5000646F672053797374656D20526573657491
:100D600020466C61670D0A004A5452463A204A54A4
:100D7000414720526573657420466C61670D0A0017
:100D8000496E697420646F6E650D0A002826270479
:100D90002826270828262710282627202826274007
:100DA000282627802523244022202140222021207C
:100DB0002220211022202108222021042220210289
:100DC000222021012B292A012E2C2D012B292A0436
:100DD0002B292A082B292A102B292A202E2C2D04D6
:100DE0002E2C2D085F595857565C555B5453525161
:100DF000505A454C0D0C0B0A09080706050403025E
:100E000001004F441B1A191817161514131211104C
:100E1000424E462B2A2928272625242322212062D8
:100E20004D4140613A393837363534333231304A02
:100E30000F1D2D3D431E2E3E3C1F2F3F5E5D616505
:0D0E40006763606466FFFFFFFFFFFFFFFFB9
:000B7C0178
:00000001FF
